{
  "_format": "hh-sol-artifact-1",
  "contractName": "Web3Cms",
  "sourceName": "contracts/Web3Cms.sol",
  "abi": [
    {
      "anonymous": false,
      "inputs": [
        {
          "indexed": false,
          "internalType": "bytes32",
          "name": "postId",
          "type": "bytes32"
        },
        {
          "indexed": false,
          "internalType": "string",
          "name": "nameOfPost",
          "type": "string"
        },
        {
          "indexed": false,
          "internalType": "string",
          "name": "postDescription",
          "type": "string"
        },
        {
          "indexed": false,
          "internalType": "string",
          "name": "thumbnailUrl",
          "type": "string"
        },
        {
          "indexed": false,
          "internalType": "string",
          "name": "postContent",
          "type": "string"
        },
        {
          "indexed": false,
          "internalType": "string",
          "name": "date",
          "type": "string"
        },
        {
          "indexed": false,
          "internalType": "address",
          "name": "owner",
          "type": "address"
        }
      ],
      "name": "NewPostCreated",
      "type": "event"
    },
    {
      "inputs": [
        {
          "internalType": "string",
          "name": "nameOfPost",
          "type": "string"
        },
        {
          "internalType": "string",
          "name": "postDescription",
          "type": "string"
        },
        {
          "internalType": "string",
          "name": "thumbnailUrl",
          "type": "string"
        },
        {
          "internalType": "string",
          "name": "postContent",
          "type": "string"
        },
        {
          "internalType": "string",
          "name": "date",
          "type": "string"
        }
      ],
      "name": "createNewPost",
      "outputs": [],
      "stateMutability": "nonpayable",
      "type": "function"
    },
    {
      "inputs": [
        {
          "internalType": "bytes32",
          "name": "",
          "type": "bytes32"
        }
      ],
      "name": "idToNewPost",
      "outputs": [
        {
          "internalType": "bytes32",
          "name": "postId",
          "type": "bytes32"
        },
        {
          "internalType": "string",
          "name": "nameOfPost",
          "type": "string"
        },
        {
          "internalType": "string",
          "name": "postDescription",
          "type": "string"
        },
        {
          "internalType": "string",
          "name": "thumbnailUrl",
          "type": "string"
        },
        {
          "internalType": "string",
          "name": "postContent",
          "type": "string"
        },
        {
          "internalType": "string",
          "name": "date",
          "type": "string"
        },
        {
          "internalType": "address",
          "name": "owner",
          "type": "address"
        }
      ],
      "stateMutability": "view",
      "type": "function"
    }
  ],
  "bytecode": "0x608060405234801561001057600080fd5b50610d31806100206000396000f3fe608060405234801561001057600080fd5b50600436106100365760003560e01c8063136890801461003b578063b096530414610071575b600080fd5b610055600480360381019061005091906107a9565b61008d565b60405161006897969594939291906108bf565b60405180910390f35b61008b600480360381019061008691906109b6565b610397565b005b60006020528060005260406000206000915090508060000154908060010180546100b690610b02565b80601f01602080910402602001604051908101604052809291908181526020018280546100e290610b02565b801561012f5780601f106101045761010080835404028352916020019161012f565b820191906000526020600020905b81548152906001019060200180831161011257829003601f168201915b50505050509080600201805461014490610b02565b80601f016020809104026020016040519081016040528092919081815260200182805461017090610b02565b80156101bd5780601f10610192576101008083540402835291602001916101bd565b820191906000526020600020905b8154815290600101906020018083116101a057829003601f168201915b5050505050908060030180546101d290610b02565b80601f01602080910402602001604051908101604052809291908181526020018280546101fe90610b02565b801561024b5780601f106102205761010080835404028352916020019161024b565b820191906000526020600020905b81548152906001019060200180831161022e57829003601f168201915b50505050509080600401805461026090610b02565b80601f016020809104026020016040519081016040528092919081815260200182805461028c90610b02565b80156102d95780601f106102ae576101008083540402835291602001916102d9565b820191906000526020600020905b8154815290600101906020018083116102bc57829003601f168201915b5050505050908060050180546102ee90610b02565b80601f016020809104026020016040519081016040528092919081815260200182805461031a90610b02565b80156103675780601f1061033c57610100808354040283529160200191610367565b820191906000526020600020905b81548152906001019060200180831161034a57829003601f168201915b5050505050908060060160009054906101000a900473ffffffffffffffffffffffffffffffffffffffff16905087565b600033308c8c8c8c8c8c8c8c8c8c6040516020016103c09c9b9a99989796959493929190610bbb565b6040516020818303038152906040528051906020012090506040518060e001604052808281526020018c8c8080601f016020809104026020016040519081016040528093929190818152602001838380828437600081840152601f19601f8201169050808301925050505050505081526020018a8a8080601f016020809104026020016040519081016040528093929190818152602001838380828437600081840152601f19601f82011690508083019250505050505050815260200188888080601f016020809104026020016040519081016040528093929190818152602001838380828437600081840152601f19601f82011690508083019250505050505050815260200186868080601f016020809104026020016040519081016040528093929190818152602001838380828437600081840152601f19601f82011690508083019250505050505050815260200184848080601f016020809104026020016040519081016040528093929190818152602001838380828437600081840152601f19601f8201169050808301925050505050505081526020013373ffffffffffffffffffffffffffffffffffffffff168152506000808381526020019081526020016000206000820151816000015560208201518160010190805190602001906105ad9291906106c6565b5060408201518160020190805190602001906105ca9291906106c6565b5060608201518160030190805190602001906105e79291906106c6565b5060808201518160040190805190602001906106049291906106c6565b5060a08201518160050190805190602001906106219291906106c6565b5060c08201518160060160006101000a81548173ffffffffffffffffffffffffffffffffffffffff021916908373ffffffffffffffffffffffffffffffffffffffff1602179055509050507fc7ac201434345d707cfc0debf2e40f45a1e4b6fa6010d7a62aa10267d6dd7d9a818c8c8c8c8c8c8c8c8c8c336040516106b19c9b9a99989796959493929190610c5f565b60405180910390a15050505050505050505050565b8280546106d290610b02565b90600052602060002090601f0160209004810192826106f4576000855561073b565b82601f1061070d57805160ff191683800117855561073b565b8280016001018555821561073b579182015b8281111561073a57825182559160200191906001019061071f565b5b509050610748919061074c565b5090565b5b8082111561076557600081600090555060010161074d565b5090565b600080fd5b600080fd5b6000819050919050565b61078681610773565b811461079157600080fd5b50565b6000813590506107a38161077d565b92915050565b6000602082840312156107bf576107be610769565b5b60006107cd84828501610794565b91505092915050565b6107df81610773565b82525050565b600081519050919050565b600082825260208201905092915050565b60005b8381101561081f578082015181840152602081019050610804565b8381111561082e576000848401525b50505050565b6000601f19601f8301169050919050565b6000610850826107e5565b61085a81856107f0565b935061086a818560208601610801565b61087381610834565b840191505092915050565b600073ffffffffffffffffffffffffffffffffffffffff82169050919050565b60006108a98261087e565b9050919050565b6108b98161089e565b82525050565b600060e0820190506108d4600083018a6107d6565b81810360208301526108e68189610845565b905081810360408301526108fa8188610845565b9050818103606083015261090e8187610845565b905081810360808301526109228186610845565b905081810360a08301526109368185610845565b905061094560c08301846108b0565b98975050505050505050565b600080fd5b600080fd5b600080fd5b60008083601f84011261097657610975610951565b5b8235905067ffffffffffffffff81111561099357610992610956565b5b6020830191508360018202830111156109af576109ae61095b565b5b9250929050565b60008060008060008060008060008060a08b8d0312156109d9576109d8610769565b5b60008b013567ffffffffffffffff8111156109f7576109f661076e565b5b610a038d828e01610960565b9a509a505060208b013567ffffffffffffffff811115610a2657610a2561076e565b5b610a328d828e01610960565b985098505060408b013567ffffffffffffffff811115610a5557610a5461076e565b5b610a618d828e01610960565b965096505060608b013567ffffffffffffffff811115610a8457610a8361076e565b5b610a908d828e01610960565b945094505060808b013567ffffffffffffffff811115610ab357610ab261076e565b5b610abf8d828e01610960565b92509250509295989b9194979a5092959850565b7f4e487b7100000000000000000000000000000000000000000000000000000000600052602260045260246000fd5b60006002820490506001821680610b1a57607f821691505b60208210811415610b2e57610b2d610ad3565b5b50919050565b60008160601b9050919050565b6000610b4c82610b34565b9050919050565b6000610b5e82610b41565b9050919050565b610b76610b718261089e565b610b53565b82525050565b600081905092915050565b82818337600083830152505050565b6000610ba28385610b7c565b9350610baf838584610b87565b82840190509392505050565b6000610bc7828f610b65565b601482019150610bd7828e610b65565b601482019150610be8828c8e610b96565b9150610bf5828a8c610b96565b9150610c0282888a610b96565b9150610c0f828688610b96565b9150610c1c828486610b96565b91508190509d9c50505050505050505050505050565b6000610c3e83856107f0565b9350610c4b838584610b87565b610c5483610834565b840190509392505050565b600060e082019050610c74600083018f6107d6565b8181036020830152610c87818d8f610c32565b90508181036040830152610c9c818b8d610c32565b90508181036060830152610cb181898b610c32565b90508181036080830152610cc6818789610c32565b905081810360a0830152610cdb818587610c32565b9050610cea60c08301846108b0565b9d9c5050505050505050505050505056fea2646970667358221220685d4c9d4959709eb29caa4555439b5733916cc8d73f93a9cbc1aaffec6740ba64736f6c63430008090033",
  "linkReferences": {},
  "deployedLinkReferences": {}
}