{
  "_format": "hh-sol-artifact-1",
  "contractName": "Web3Cms",
  "sourceName": "contracts/Web3Cms.sol",
  "abi": [
    {
      "anonymous": false,
      "inputs": [
        {
          "indexed": false,
          "internalType": "bytes32",
          "name": "postId",
          "type": "bytes32"
        },
        {
          "indexed": false,
          "internalType": "string",
          "name": "nameOfPost",
          "type": "string"
        },
        {
          "indexed": false,
          "internalType": "string",
          "name": "postDescription",
          "type": "string"
        },
        {
          "indexed": false,
          "internalType": "string",
          "name": "thumbnailUrl",
          "type": "string"
        },
        {
          "indexed": false,
          "internalType": "string",
          "name": "postContent",
          "type": "string"
        },
        {
          "indexed": false,
          "internalType": "string",
          "name": "date",
          "type": "string"
        },
        {
          "indexed": false,
          "internalType": "string",
          "name": "audioTitle",
          "type": "string"
        },
        {
          "indexed": false,
          "internalType": "string",
          "name": "audioUrl",
          "type": "string"
        },
        {
          "indexed": false,
          "internalType": "string",
          "name": "audioThumbnail",
          "type": "string"
        },
        {
          "indexed": false,
          "internalType": "address",
          "name": "owner",
          "type": "address"
        }
      ],
      "name": "NewAudioPostCreated",
      "type": "event"
    },
    {
      "anonymous": false,
      "inputs": [
        {
          "indexed": false,
          "internalType": "bytes32",
          "name": "postId",
          "type": "bytes32"
        },
        {
          "indexed": false,
          "internalType": "string",
          "name": "nameOfPost",
          "type": "string"
        },
        {
          "indexed": false,
          "internalType": "string",
          "name": "postDescription",
          "type": "string"
        },
        {
          "indexed": false,
          "internalType": "string",
          "name": "thumbnailUrl",
          "type": "string"
        },
        {
          "indexed": false,
          "internalType": "string",
          "name": "postContent",
          "type": "string"
        },
        {
          "indexed": false,
          "internalType": "string",
          "name": "date",
          "type": "string"
        },
        {
          "indexed": false,
          "internalType": "address",
          "name": "owner",
          "type": "address"
        }
      ],
      "name": "NewBlogPostCreated",
      "type": "event"
    },
    {
      "anonymous": false,
      "inputs": [
        {
          "indexed": false,
          "internalType": "bytes32",
          "name": "postId",
          "type": "bytes32"
        },
        {
          "indexed": false,
          "internalType": "string",
          "name": "nameOfPost",
          "type": "string"
        },
        {
          "indexed": false,
          "internalType": "string",
          "name": "postDescription",
          "type": "string"
        },
        {
          "indexed": false,
          "internalType": "string",
          "name": "thumbnailUrl",
          "type": "string"
        },
        {
          "indexed": false,
          "internalType": "string",
          "name": "postContent",
          "type": "string"
        },
        {
          "indexed": false,
          "internalType": "string",
          "name": "date",
          "type": "string"
        },
        {
          "indexed": false,
          "internalType": "string",
          "name": "videoTitle",
          "type": "string"
        },
        {
          "indexed": false,
          "internalType": "string",
          "name": "videoUrl",
          "type": "string"
        },
        {
          "indexed": false,
          "internalType": "string",
          "name": "videoThumbnail",
          "type": "string"
        },
        {
          "indexed": false,
          "internalType": "address",
          "name": "owner",
          "type": "address"
        }
      ],
      "name": "NewVlogPostCreated",
      "type": "event"
    },
    {
      "inputs": [
        {
          "internalType": "string",
          "name": "nameOfPost",
          "type": "string"
        },
        {
          "internalType": "string",
          "name": "postDescription",
          "type": "string"
        },
        {
          "internalType": "string",
          "name": "thumbnailUrl",
          "type": "string"
        },
        {
          "internalType": "string",
          "name": "postContent",
          "type": "string"
        },
        {
          "internalType": "string",
          "name": "date",
          "type": "string"
        }
      ],
      "name": "createNewBlogPost",
      "outputs": [],
      "stateMutability": "nonpayable",
      "type": "function"
    },
    {
      "inputs": [
        {
          "internalType": "bytes32",
          "name": "",
          "type": "bytes32"
        }
      ],
      "name": "idToNewAudioPost",
      "outputs": [
        {
          "internalType": "bytes32",
          "name": "postId",
          "type": "bytes32"
        },
        {
          "internalType": "string",
          "name": "nameOfPost",
          "type": "string"
        },
        {
          "internalType": "string",
          "name": "postDescription",
          "type": "string"
        },
        {
          "internalType": "string",
          "name": "thumbnailUrl",
          "type": "string"
        },
        {
          "internalType": "string",
          "name": "postContent",
          "type": "string"
        },
        {
          "internalType": "string",
          "name": "date",
          "type": "string"
        },
        {
          "internalType": "string",
          "name": "audioTitle",
          "type": "string"
        },
        {
          "internalType": "string",
          "name": "audioUrl",
          "type": "string"
        },
        {
          "internalType": "string",
          "name": "audioThumbnail",
          "type": "string"
        },
        {
          "internalType": "address",
          "name": "owner",
          "type": "address"
        }
      ],
      "stateMutability": "view",
      "type": "function"
    },
    {
      "inputs": [
        {
          "internalType": "bytes32",
          "name": "",
          "type": "bytes32"
        }
      ],
      "name": "idToNewBlogPost",
      "outputs": [
        {
          "internalType": "bytes32",
          "name": "postId",
          "type": "bytes32"
        },
        {
          "internalType": "string",
          "name": "nameOfPost",
          "type": "string"
        },
        {
          "internalType": "string",
          "name": "postDescription",
          "type": "string"
        },
        {
          "internalType": "string",
          "name": "thumbnailUrl",
          "type": "string"
        },
        {
          "internalType": "string",
          "name": "postContent",
          "type": "string"
        },
        {
          "internalType": "string",
          "name": "date",
          "type": "string"
        },
        {
          "internalType": "address",
          "name": "owner",
          "type": "address"
        }
      ],
      "stateMutability": "view",
      "type": "function"
    },
    {
      "inputs": [
        {
          "internalType": "bytes32",
          "name": "",
          "type": "bytes32"
        }
      ],
      "name": "idToNewVlogPost",
      "outputs": [
        {
          "internalType": "string",
          "name": "nameOfPost",
          "type": "string"
        },
        {
          "internalType": "string",
          "name": "postDescription",
          "type": "string"
        },
        {
          "internalType": "string",
          "name": "thumbnailUrl",
          "type": "string"
        },
        {
          "internalType": "string",
          "name": "postContent",
          "type": "string"
        },
        {
          "internalType": "string",
          "name": "date",
          "type": "string"
        },
        {
          "internalType": "string",
          "name": "videoTitle",
          "type": "string"
        },
        {
          "internalType": "string",
          "name": "videoUrl",
          "type": "string"
        },
        {
          "internalType": "string",
          "name": "videoThumbnail",
          "type": "string"
        },
        {
          "internalType": "address",
          "name": "owner",
          "type": "address"
        }
      ],
      "stateMutability": "view",
      "type": "function"
    }
  ],
  "bytecode": "0x608060405234801561001057600080fd5b506118b4806100206000396000f3fe608060405234801561001057600080fd5b506004361061004c5760003560e01c8063208b29bd1461005157806343c2572f14610089578063e502eed1146100c2578063fcb4f22a146100f8575b600080fd5b61006b60048036038101906100669190611193565b610114565b6040516100809998979695949392919061129a565b60405180910390f35b6100a3600480360381019061009e9190611193565b6105c2565b6040516100b99a9998979695949392919061136e565b60405180910390f35b6100dc60048036038101906100d79190611193565b610a76565b6040516100ef9796959493929190611442565b60405180910390f35b610112600480360381019061010d9190611539565b610d80565b005b600260205280600052604060002060009150905080600001805461013790611685565b80601f016020809104026020016040519081016040528092919081815260200182805461016390611685565b80156101b05780601f10610185576101008083540402835291602001916101b0565b820191906000526020600020905b81548152906001019060200180831161019357829003601f168201915b5050505050908060010180546101c590611685565b80601f01602080910402602001604051908101604052809291908181526020018280546101f190611685565b801561023e5780601f106102135761010080835404028352916020019161023e565b820191906000526020600020905b81548152906001019060200180831161022157829003601f168201915b50505050509080600201805461025390611685565b80601f016020809104026020016040519081016040528092919081815260200182805461027f90611685565b80156102cc5780601f106102a1576101008083540402835291602001916102cc565b820191906000526020600020905b8154815290600101906020018083116102af57829003601f168201915b5050505050908060030180546102e190611685565b80601f016020809104026020016040519081016040528092919081815260200182805461030d90611685565b801561035a5780601f1061032f5761010080835404028352916020019161035a565b820191906000526020600020905b81548152906001019060200180831161033d57829003601f168201915b50505050509080600401805461036f90611685565b80601f016020809104026020016040519081016040528092919081815260200182805461039b90611685565b80156103e85780601f106103bd576101008083540402835291602001916103e8565b820191906000526020600020905b8154815290600101906020018083116103cb57829003601f168201915b5050505050908060050180546103fd90611685565b80601f016020809104026020016040519081016040528092919081815260200182805461042990611685565b80156104765780601f1061044b57610100808354040283529160200191610476565b820191906000526020600020905b81548152906001019060200180831161045957829003601f168201915b50505050509080600601805461048b90611685565b80601f01602080910402602001604051908101604052809291908181526020018280546104b790611685565b80156105045780601f106104d957610100808354040283529160200191610504565b820191906000526020600020905b8154815290600101906020018083116104e757829003601f168201915b50505050509080600701805461051990611685565b80601f016020809104026020016040519081016040528092919081815260200182805461054590611685565b80156105925780601f1061056757610100808354040283529160200191610592565b820191906000526020600020905b81548152906001019060200180831161057557829003601f168201915b5050505050908060080160009054906101000a900473ffffffffffffffffffffffffffffffffffffffff16905089565b60006020528060005260406000206000915090508060000154908060010180546105eb90611685565b80601f016020809104026020016040519081016040528092919081815260200182805461061790611685565b80156106645780601f1061063957610100808354040283529160200191610664565b820191906000526020600020905b81548152906001019060200180831161064757829003601f168201915b50505050509080600201805461067990611685565b80601f01602080910402602001604051908101604052809291908181526020018280546106a590611685565b80156106f25780601f106106c7576101008083540402835291602001916106f2565b820191906000526020600020905b8154815290600101906020018083116106d557829003601f168201915b50505050509080600301805461070790611685565b80601f016020809104026020016040519081016040528092919081815260200182805461073390611685565b80156107805780601f1061075557610100808354040283529160200191610780565b820191906000526020600020905b81548152906001019060200180831161076357829003601f168201915b50505050509080600401805461079590611685565b80601f01602080910402602001604051908101604052809291908181526020018280546107c190611685565b801561080e5780601f106107e35761010080835404028352916020019161080e565b820191906000526020600020905b8154815290600101906020018083116107f157829003601f168201915b50505050509080600501805461082390611685565b80601f016020809104026020016040519081016040528092919081815260200182805461084f90611685565b801561089c5780601f106108715761010080835404028352916020019161089c565b820191906000526020600020905b81548152906001019060200180831161087f57829003601f168201915b5050505050908060060180546108b190611685565b80601f01602080910402602001604051908101604052809291908181526020018280546108dd90611685565b801561092a5780601f106108ff5761010080835404028352916020019161092a565b820191906000526020600020905b81548152906001019060200180831161090d57829003601f168201915b50505050509080600701805461093f90611685565b80601f016020809104026020016040519081016040528092919081815260200182805461096b90611685565b80156109b85780601f1061098d576101008083540402835291602001916109b8565b820191906000526020600020905b81548152906001019060200180831161099b57829003601f168201915b5050505050908060080180546109cd90611685565b80601f01602080910402602001604051908101604052809291908181526020018280546109f990611685565b8015610a465780601f10610a1b57610100808354040283529160200191610a46565b820191906000526020600020905b815481529060010190602001808311610a2957829003601f168201915b5050505050908060090160009054906101000a900473ffffffffffffffffffffffffffffffffffffffff1690508a565b6001602052806000526040600020600091509050806000015490806001018054610a9f90611685565b80601f0160208091040260200160405190810160405280929190818152602001828054610acb90611685565b8015610b185780601f10610aed57610100808354040283529160200191610b18565b820191906000526020600020905b815481529060010190602001808311610afb57829003601f168201915b505050505090806002018054610b2d90611685565b80601f0160208091040260200160405190810160405280929190818152602001828054610b5990611685565b8015610ba65780601f10610b7b57610100808354040283529160200191610ba6565b820191906000526020600020905b815481529060010190602001808311610b8957829003601f168201915b505050505090806003018054610bbb90611685565b80601f0160208091040260200160405190810160405280929190818152602001828054610be790611685565b8015610c345780601f10610c0957610100808354040283529160200191610c34565b820191906000526020600020905b815481529060010190602001808311610c1757829003601f168201915b505050505090806004018054610c4990611685565b80601f0160208091040260200160405190810160405280929190818152602001828054610c7590611685565b8015610cc25780601f10610c9757610100808354040283529160200191610cc2565b820191906000526020600020905b815481529060010190602001808311610ca557829003601f168201915b505050505090806005018054610cd790611685565b80601f0160208091040260200160405190810160405280929190818152602001828054610d0390611685565b8015610d505780601f10610d2557610100808354040283529160200191610d50565b820191906000526020600020905b815481529060010190602001808311610d3357829003601f168201915b5050505050908060060160009054906101000a900473ffffffffffffffffffffffffffffffffffffffff16905087565b600033308c8c8c8c8c8c8c8c8c8c604051602001610da99c9b9a9998979695949392919061173e565b6040516020818303038152906040528051906020012090506040518060e001604052808281526020018c8c8080601f016020809104026020016040519081016040528093929190818152602001838380828437600081840152601f19601f8201169050808301925050505050505081526020018a8a8080601f016020809104026020016040519081016040528093929190818152602001838380828437600081840152601f19601f82011690508083019250505050505050815260200188888080601f016020809104026020016040519081016040528093929190818152602001838380828437600081840152601f19601f82011690508083019250505050505050815260200186868080601f016020809104026020016040519081016040528093929190818152602001838380828437600081840152601f19601f82011690508083019250505050505050815260200184848080601f016020809104026020016040519081016040528093929190818152602001838380828437600081840152601f19601f8201169050808301925050505050505081526020013373ffffffffffffffffffffffffffffffffffffffff1681525060016000838152602001908152602001600020600082015181600001556020820151816001019080519060200190610f979291906110b0565b506040820151816002019080519060200190610fb49291906110b0565b506060820151816003019080519060200190610fd19291906110b0565b506080820151816004019080519060200190610fee9291906110b0565b5060a082015181600501908051906020019061100b9291906110b0565b5060c08201518160060160006101000a81548173ffffffffffffffffffffffffffffffffffffffff021916908373ffffffffffffffffffffffffffffffffffffffff1602179055509050507f3ffe0370a72d9dc1f501d6f299d03fb8142bae2b61df3574a2f4afe4b656e049818c8c8c8c8c8c8c8c8c8c3360405161109b9c9b9a999897969594939291906117e2565b60405180910390a15050505050505050505050565b8280546110bc90611685565b90600052602060002090601f0160209004810192826110de5760008555611125565b82601f106110f757805160ff1916838001178555611125565b82800160010185558215611125579182015b82811115611124578251825591602001919060010190611109565b5b5090506111329190611136565b5090565b5b8082111561114f576000816000905550600101611137565b5090565b600080fd5b600080fd5b6000819050919050565b6111708161115d565b811461117b57600080fd5b50565b60008135905061118d81611167565b92915050565b6000602082840312156111a9576111a8611153565b5b60006111b78482850161117e565b91505092915050565b600081519050919050565b600082825260208201905092915050565b60005b838110156111fa5780820151818401526020810190506111df565b83811115611209576000848401525b50505050565b6000601f19601f8301169050919050565b600061122b826111c0565b61123581856111cb565b93506112458185602086016111dc565b61124e8161120f565b840191505092915050565b600073ffffffffffffffffffffffffffffffffffffffff82169050919050565b600061128482611259565b9050919050565b61129481611279565b82525050565b60006101208201905081810360008301526112b5818c611220565b905081810360208301526112c9818b611220565b905081810360408301526112dd818a611220565b905081810360608301526112f18189611220565b905081810360808301526113058188611220565b905081810360a08301526113198187611220565b905081810360c083015261132d8186611220565b905081810360e08301526113418185611220565b905061135161010083018461128b565b9a9950505050505050505050565b6113688161115d565b82525050565b600061014082019050611384600083018d61135f565b8181036020830152611396818c611220565b905081810360408301526113aa818b611220565b905081810360608301526113be818a611220565b905081810360808301526113d28189611220565b905081810360a08301526113e68188611220565b905081810360c08301526113fa8187611220565b905081810360e083015261140e8186611220565b90508181036101008301526114238185611220565b905061143361012083018461128b565b9b9a5050505050505050505050565b600060e082019050611457600083018a61135f565b81810360208301526114698189611220565b9050818103604083015261147d8188611220565b905081810360608301526114918187611220565b905081810360808301526114a58186611220565b905081810360a08301526114b98185611220565b90506114c860c083018461128b565b98975050505050505050565b600080fd5b600080fd5b600080fd5b60008083601f8401126114f9576114f86114d4565b5b8235905067ffffffffffffffff811115611516576115156114d9565b5b602083019150836001820283011115611532576115316114de565b5b9250929050565b60008060008060008060008060008060a08b8d03121561155c5761155b611153565b5b60008b013567ffffffffffffffff81111561157a57611579611158565b5b6115868d828e016114e3565b9a509a505060208b013567ffffffffffffffff8111156115a9576115a8611158565b5b6115b58d828e016114e3565b985098505060408b013567ffffffffffffffff8111156115d8576115d7611158565b5b6115e48d828e016114e3565b965096505060608b013567ffffffffffffffff81111561160757611606611158565b5b6116138d828e016114e3565b945094505060808b013567ffffffffffffffff81111561163657611635611158565b5b6116428d828e016114e3565b92509250509295989b9194979a5092959850565b7f4e487b7100000000000000000000000000000000000000000000000000000000600052602260045260246000fd5b6000600282049050600182168061169d57607f821691505b602082108114156116b1576116b0611656565b5b50919050565b60008160601b9050919050565b60006116cf826116b7565b9050919050565b60006116e1826116c4565b9050919050565b6116f96116f482611279565b6116d6565b82525050565b600081905092915050565b82818337600083830152505050565b600061172583856116ff565b935061173283858461170a565b82840190509392505050565b600061174a828f6116e8565b60148201915061175a828e6116e8565b60148201915061176b828c8e611719565b9150611778828a8c611719565b915061178582888a611719565b9150611792828688611719565b915061179f828486611719565b91508190509d9c50505050505050505050505050565b60006117c183856111cb565b93506117ce83858461170a565b6117d78361120f565b840190509392505050565b600060e0820190506117f7600083018f61135f565b818103602083015261180a818d8f6117b5565b9050818103604083015261181f818b8d6117b5565b9050818103606083015261183481898b6117b5565b905081810360808301526118498187896117b5565b905081810360a083015261185e8185876117b5565b905061186d60c083018461128b565b9d9c5050505050505050505050505056fea26469706673582212205396e3587fc1996b451d8bd6b5f70be762db85ae56a44d9df178bcb8ad5e4bd064736f6c63430008090033",
  "linkReferences": {},
  "deployedLinkReferences": {}
}